:020000040800F2
:1000000000000220B12A0008D5070008D707000821
:10001000D9070008DB070008DD0700080000000022
:10002000000000000000000000000000412800085F
:10003000DF07000800000000E1280008452900084B
:10004000012B0008012B0008012B0008012B0008E0
:10005000012B0008012B0008012B0008012B0008D0
:10006000012B0008012B0008012B0008012B0008C0
:10007000012B0008012B0008012B0008012B0008B0
:10008000012B0008012B0008012B0008012B0008A0
:10009000012B0008012B0008012B0008012B000890
:1000A000012B0008E1070008012B0008012B0008C4
:1000B000012B0008012B0008012B0008012B000870
:1000C000012B0008012B0008012B0008012B000860
:1000D000012B0008F1070008012B0008012B000884
:1000E000012B0008012B0008012B0008012B000840
:1000F000012B0008012B0008012B0008012B000830
:10010000012B0008012B0008012B0008012B00081F
:10011000012B0008012B0008012B0008012B00080F
:10012000012B0008012B0008012B0008012B0008FF
:10013000012B0008012B0008012B0008012B0008EF
:10014000012B0008012B0008012B0008012B0008DF
:10015000012B0008012B0008012B0008012B0008CF
:10016000012B0008012B0008012B0008012B0008BF
:10017000012B0008012B0008012B000800000000E3
:08018000012B0008012B00080F
:1001900010B5054C237833B9044B13B10448AFF3C1
:1001A00000800123237010BD10000020000000001B
:1001B000842B000808B5034B1BB103490348AFF378
:1001C000008008BD0000000014000020842B0008FF
:1001D00053B94AB9002908BF00281CBF4FF0FF31AE
:1001E0004FF0FF3000F074B9ADF1080C6DE904CEAA
:1001F00000F006F8DDF804E0DDE9022304B0704702
:100200002DE9F047089D04468E46002B4DD18A42C9
:10021000944669D9B2FA82F252B101FA02F3C2F1FC
:10022000200120FA01F10CFA02FC41EA030E94408D
:100230004FEA1C48210CBEFBF8F61FFA8CF708FBAE
:1002400016E341EA034306FB07F199420AD91CEB86
:10025000030306F1FF3080F01F81994240F21C81B8
:10026000023E63445B1AA4B2B3FBF8F008FB103300
:1002700044EA034400FB07F7A7420AD91CEB040435
:1002800000F1FF3380F00A81A74240F20781644405
:10029000023840EA0640E41B00261DB1D44000238A
:1002A000C5E900433146BDE8F0878B4209D9002DEE
:1002B00000F0EF800026C5E9000130463146BDE878
:1002C000F087B3FA83F6002E4AD18B4202D38242E2
:1002D00000F2F980841A61EB030301209E46002D91
:1002E000E0D0C5E9004EDDE702B9FFDEB2FA82F2E6
:1002F000002A40F09280A1EB0C014FEA1C471FFA44
:100300008CFE0126200CB1FBF7F307FB131140EA2A
:1003100001410EFB03F0884208D91CEB010103F1F7
:10032000FF3802D2884200F2CB804346091AA4B2B9
:10033000B1FBF7F007FB101144EA01440EFB00FE8D
:10034000A64508D91CEB040400F1FF3102D2A645F2
:1003500000F2BB800846A4EB0E0440EA03409CE791
:10036000C6F12007B34022FA07FC4CEA030C20FA3E
:1003700007F401FA06F31C43F9404FEA1C4900FA5E
:1003800006F3B1FBF9F8200C1FFA8CFE09FB1811DB
:1003900040EA014108FB0EF0884202FA06F20BD94E
:1003A0001CEB010108F1FF3A80F08880884240F29E
:1003B0008580A8F102086144091AA4B2B1FBF9F0E2
:1003C00009FB101144EA014100FB0EFE8E4508D9DD
:1003D0001CEB010100F1FF346CD28E456AD9023862
:1003E000614440EA0840A0FB0294A1EB0E01A14247
:1003F000C846A64656D353D05DB1B3EB080261EBB5
:100400000E0101FA07F722FA06F3F1401F43C5E98E
:10041000007100263146BDE8F087C2F12003D840C4
:100420000CFA02FC21FA03F3914001434FEA1C4706
:100430001FFA8CFEB3FBF7F007FB10360B0C43EAF8
:10044000064300FB0EF69E4204FA02F408D91CEBA8
:10045000030300F1FF382FD29E422DD902386344A6
:100460009B1B89B2B3FBF7F607FB163341EA034146
:1004700006FB0EF38B4208D91CEB010106F1FF3895
:1004800016D28B4214D9023E6144C91A46EA00468C
:1004900038E72E46284605E70646E3E61846F8E61E
:1004A0004B45A9D2B9EB020864EB0C0E0138A3E767
:1004B0004646EAE7204694E74046D1E7D0467BE748
:1004C000023B614432E7304609E76444023842E7C0
:1004D000704700BF08B50268034B9A4200D008BDC0
:1004E00000F01EFFFBE700BF0000014072B6FEE710
:1004F00000B595B03022002108A802F027FB0023A8
:10050000039304930593069307930193204A116C78
:1005100041F080511164126C02F080520192019AF4
:1005200002931C4B1A6842F480421A601B6803F461
:1005300080430293029B012308934FF48033099375
:1005400002220E924FF480030F9304231093A821EC
:1005500011911292139308A800F0C0F998B90F23D3
:10056000039302230493002305934FF4A0530693AF
:100570004FF480530793052103A800F015FC20B920
:1005800015B05DF804FBFFF7B1FFFFF7AFFF00BF49
:10059000003802400070004008B500F0A7FEFFF7E9
:1005A000A7FF00F007F800F0BBF800F053F801F0E7
:1005B0008FFFFEE730B589B00024039404940594BE
:1005C000069407940194134B1A6B42F080021A634D
:1005D0001A6B02F080020192019A02941A6B42F0A7
:1005E00001021A631B6B03F001030293029B0A4D85
:1005F00022464021284600F0BDFD402303930123FD
:1006000004930594069403A9284600F0C1FC09B0A0
:1006100030BD00BF003802400000024008B5012094
:1006200001F090FFFBE708B5012001F08BFFFBE72D
:1006300008B5012001F086FFFBE70000034B0360D3
:10064000034B0B6080231360704700BFA40200209F
:10065000A400002010B596B01E4C0DF13C0CA6462F
:10066000BEE80F00ACE80F009EE807008CE807002A
:1006700000210FA801F031FF174B18600DF1200C7D
:1006800004F11C0EBEE80F00ACE80F009EE8070066
:100690008CE80700002108A801F01FFF0F4B18602D
:1006A0000DF1040E04F1380CBCE80F00AEE80F00A9
:1006B0009CE807008EE80700002101A801F00DFF6B
:1006C000074B186001220749074801F0D0FA16B01D
:1006D00010BD00BF9C2B000834000020300000201B
:1006E0002C000020A0000020F802002008B5084AD5
:1006F0001378DBB2074808490978C15413780133ED
:10070000DBB213700622054902F028FA08BD00BFCB
:10071000380000203C000020A0000020182C000819
:1007200008B50A480A4B03604FF4E13343600023E5
:100730008360C36003610C2242618361C36101F085
:1007400081F800B908BDFFF7D1FEFBE7F8020020F1
:100750000010014010B588B0002303930493059363
:1007600006930793026803F1804303F588339A42A6
:1007700001D008B010BD0024019403F594335A6CE5
:1007800042F010025A645A6C02F010020192019A6F
:1007900002941A6B42F001021A631B6B03F001030F
:1007A0000293029B4FF4C063039302230493032339
:1007B00006930723079303A9054800F0E9FB2246A7
:1007C0000521252000F04CFD252000F081FDD0E71B
:1007D00000000240FEE7FEE7FEE7FEE7FEE77047A7
:1007E00008B5024800F0F8FD08BD00BF3C0300203A
:1007F00008B5024801F0DEF808BD00BFF80200208D
:1008000000B583B0002200920D4B596C41F4804139
:100810005964596C01F48041009100990192196C5E
:1008200041F0805119641B6C03F080530193019BCC
:100830000F216FF0010000F013FD03B05DF804FB21
:100840000038024030B589B00546002401941E4BA3
:100850005A6C42F001025A645B6C03F0010301938D
:10086000019B02A903A800F075FB00F063FB4300A5
:100870001648A0FB03239B0C013B1548154A026058
:1008800040F2E732C260436004618460846100F03A
:10089000C5FE044610B1204609B030BD0C4800F03A
:1008A00053FD04460028F6D1192000F011FD0F2D4C
:1008B00001D90124EFE700222946192000F0D0FCDD
:1008C000054B1D60E7E700BF0038024083DE1B4395
:1008D0003C0300200000014004000020002800F03C
:1008E000E08170B582B00446036813F0010F3BD07D
:1008F0009F4B9B6803F00C03042B2CD09C4B9B68F4
:1009000003F00C03082B21D06368B3F5803F4FD070
:10091000B3F5A02F52D0964B1A6822F480321A6099
:100920001A6822F480221A606368002B50D000F00D
:1009300003FD05468E4B1B6813F4003F14D100F0F5
:10094000FBFC401B6428F5D90320B1E1884B5B68B0
:1009500013F4800FD8D0864B1B6813F4003F03D0EC
:100960006368002B00F09F81236813F0020F54D0BE
:100970007F4B9B6813F00C0F3ED07D4B9B6803F0C0
:100980000C03082B33D0E368002B68D0794B01228D
:100990001A6000F0D1FC0546754B1B6813F0020F7E
:1009A00054D100F0C9FC401B0228F5D903207FE197
:1009B0006F4A136843F480331360B5E76C4B1A68D1
:1009C00042F480221A601A6842F480321A60ABE75F
:1009D00000F0B2FC0546664B1B6813F4003FC3D021
:1009E00000F0AAFC401B6428F5D9032060E1604BAD
:1009F0005B6813F4800FC6D15D4B1B6813F0020FC8
:100A000003D0E368012B40F05081594A136823F06A
:100A1000F803216943EAC1031360236813F0080F48
:100A200042D063696BB3534B0122C3F8802E00F0B0
:100A300083FC05464E4B5B6F13F0020F34D100F080
:100A40007BFC401B0228F5D9032031E1484A13689A
:100A500023F0F803216943EAC1031360DDE7454B46
:100A600000221A6000F068FC0546414B1B6813F039
:100A7000020FD2D000F060FC401B0228F5D9032001
:100A800016E13C4B0022C3F8802E00F055FC0546D1
:100A9000374B5B6F13F0020F06D000F04DFC401B8C
:100AA0000228F5D9032003E1236813F0040F77D05F
:100AB0002F4B1B6C13F0805F33D1002301932C4B21
:100AC0001A6C42F080521A641B6C03F0805301933D
:100AD000019B0125284B1B6813F4807F23D0A3685A
:100AE000012B34D0052B38D0214B1A6F22F0010294
:100AF0001A671A6F22F004021A67A368002B3DD010
:100B000000F01AFC06461A4B1B6F13F0020F46D179
:100B100000F012FC801B41F288339842F3D9032085
:100B2000C6E00025D6E7144A136843F480731360C7
:100B300000F002FC0646104B1B6813F4807FCED1F8
:100B400000F0FAFB801B0228F5D90320B0E0084A28
:100B5000136F43F001031367CFE7054B1A6F42F0A1
:100B600004021A671A6F42F001021A67C5E700BF54
:100B700000380240000047420070004000F0DCFBFB
:100B80000646524B1B6F13F0020F08D000F0D4FB47
:100B9000801B41F288339842F3D9032088E0EDB9F5
:100BA000A369002B00F08380484A926802F00C028F
:100BB000082A51D0022B17D0454B00221A6600F0AC
:100BC000BBFB0446414B1B6813F0007F42D000F092
:100BD000B3FB001B0228F5D9032069E03B4A136CE4
:100BE00023F080531364DBE7394B00221A6600F0D0
:100BF000A3FB0546354B1B6813F0007F06D000F0C1
:100C00009BFB401B0228F5D9032051E0E369226ACF
:100C10001343626A43EA8213A26A5208013A43EA22
:100C20000243E26A43EA0263284A5360284B0122E6
:100C30001A6600F081FB0446244B1B6813F0007F0A
:100C400006D100F079FB001B0228F5D903202FE024
:100C500000202DE000202BE0012B2BD01B4B5B68EC
:100C600003F48001E269914226D103F03F02216A38
:100C70008A4223D1616A47F6C0721A40B2EB811FE3
:100C80001ED103F44031A26A5208013AB1EB024F7F
:100C900018D103F07063E26AB3EB026F14D1002045
:100CA00006E001207047012002E0012000E0002062
:100CB00002B070BD0120FBE70120F9E70120F7E752
:100CC0000120F5E70120F3E70120F1E700380240B9
:100CD0000000474208B5314B9B6803F00C03042B1E
:100CE00057D0082B57D12D4B5A6802F03F025B6852
:100CF00013F4800F2AD0294B5968C1F3881C4FEA9E
:100D00004C11B1EB0C006EEB0E0E4FEA8E1343EA62
:100D100090638101091A63EB0E03DB0043EA517310
:100D2000C90011EB0C0C43F10003590200234FEAF8
:100D30004C2041EADC51FFF74BFA184B5B68C3F3D8
:100D4000014301335B00B0FBF3F025E0134B59681E
:100D5000C1F3881C4FEA4C11B1EB0C006EEB0E0E88
:100D60004FEA8E1343EA90638101091A63EB0E0385
:100D7000DB0043EA5173C90011EB0C0C43F1000393
:100D8000990200234FEA8C2041EA9C51FFF720FA98
:100D9000D3E7034800E0034808BD00BF0038024025
:100DA00000127A000024F400002800F09B8070B547
:100DB0000D4604464F4B1B6803F007038B4208D2D5
:100DC000CBB24C4A1370136803F007038B4240F018
:100DD0008B80236813F0020F17D013F0040F04D098
:100DE000454A936843F4E0539360236813F0080F77
:100DF00004D0414A936843F4604393603E4A936849
:100E000023F0F003A1680B439360236813F0010FF4
:100E100032D06368012B21D09A1E012A25D9364A87
:100E2000126812F0020F61D033498A6822F003027F
:100E300013438B6000F080FA06462F4B9B6803F04B
:100E40000C036268B3EB820F16D000F075FA801BBA
:100E500041F288339842F0D9032042E0264A1268D2
:100E600012F4003FE0D101203BE0234A126812F067
:100E7000007FD9D1012034E01E4B1B6803F007032B
:100E8000AB4207D9EAB21B4B1A701B6803F0070389
:100E9000AB422DD1236813F0040F06D0164A936895
:100EA00023F4E053E1680B439360236813F0080FC9
:100EB00007D0114A936823F46043216943EAC103D0
:100EC0009360FFF707FF0C4B9B68C3F303130B4AB8
:100ED000D35CD8400A4B18600A4B1868FFF7B2FC85
:100EE000002070BD012070470120FAE70120F8E7DB
:100EF0000120F6E7003C024000380240202C0008A8
:100F00000800002004000020014B1868704700BF53
:100F10000800002008B5FFF7F7FF044B9B68C3F3F8
:100F20008223034AD35CD84008BD00BF003802408A
:100F3000302C000808B5FFF7E7FF044B9B68C3F3AC
:100F40004233034AD35CD84008BD00BF003802409A
:100F5000302C00080F2303600B4B9A6802F0030249
:100F600042609A6802F0F00282609A6802F4E052ED
:100F7000C2609B68DB0803F4E0530361034B1B680A
:100F800003F007030B60704700380240003C02404A
:100F900000230F2B00F2E48070B582B060E085681A
:100FA0005E000324B44025EA0405CC68B4402C4319
:100FB0008460456825EA02054C68C4F300129A4033
:100FC0002A4342605AE0DC08083450F8246003F0F9
:100FD000070295000F22AA4026EA020E0A69AA40DB
:100FE00042EA0E0240F824205CE0072200E00022E2
:100FF00002FA0EF22A4302345A4D45F824205A4A86
:1010000094686FEA0C0224EA0C054E6816F4801FFF
:1010100001D04CEA0405544CA560E46802EA0405DA
:101020004E6816F4001F01D04CEA04054E4CE560F2
:10103000646802EA04054E6816F4003F01D04CEAE9
:101040000405494C6560246822404D6815F4803FD2
:1010500001D04CEA0402444C226001330F2B7DD8AE
:1010600001229A400C6804EA020C32EA0404F4D12A
:101070004C6804F00304013C012C90D94A6802F04A
:101080000302032A09D0C4685D000322AA4024EAAF
:1010900002048A68AA402243C2604A6802F003023E
:1010A000022A90D004684FEA430E032202FA0EF29D
:1010B00024EA02044A6802F0030202FA0EF2224312
:1010C00002604A6812F4403FC7D000220192274ACA
:1010D000546C44F480445464526C02F48042019293
:1010E000019A9C08A51C1F4A52F8255003F00302E0
:1010F0004FEA820E0F2202FA0EF225EA02051C4A7E
:1011000090423FF474AF02F5806290421AD002F52B
:101110008062904218D002F58062904216D002F5AB
:101120008062904214D002F58062904212D002F5A3
:101130008062904210D002F5806290423FF455AF39
:10114000082255E7012253E7022251E703224FE725
:1011500004224DE705224BE7062249E702B070BDA5
:10116000704700BF00380140003C01400038024099
:10117000000002400AB18161704709048161704733
:1011800070B50446866D00F0D7F894F83530DBB2C0
:10119000022B06D080236365002384F834300120BD
:1011A00070BD05462268136823F016031360226899
:1011B000536923F080035361236CE3B12268136801
:1011C00023F0080313602268136823F001031360FF
:1011D00023681B6813F0010F11D000F0ADF8431B1A
:1011E000052BF5D920236365032084F835000023FF
:1011F00084F83430D4E7A36C002BDFD1E3E7E26D51
:101200003F239340B360012384F83530002084F8F5
:101210003400C5E790F83530DBB2022B03D08023D1
:10122000436501207047052380F835300268136854
:1012300023F001031360002070470000074AD368C1
:1012400023F4E0631B041B0C000200F4E060034382
:1012500043F0BF6343F40033D360704700ED00E018
:1012600000B5194BDB68C3F30223C3F1070CBCF1D3
:10127000040F28BF4FF0040C03F1040EBEF1060F5B
:1012800018D9033B4FF0FF3E0EFA0CFC21EA0C018B
:1012900099400EFA03F322EA0303194300280BDBFB
:1012A0000901C9B200F1604000F5614080F8001307
:1012B0005DF804FB0023E5E700F00F000901C9B267
:1012C000024B1954F4E700BF00ED00E014ED00E01C
:1012D000002807DB00F01F02400901239340024A67
:1012E00042F82030704700BF00E100E008B50B4B2A
:1012F0001A6842F400721A601A6842F480621A6036
:101300001A6842F480721A600320FFF797FF0F20DB
:10131000FFF798FAFFF774FA002008BD003C02407E
:10132000034A1168034B1B780B441360704700BFDE
:101330008403002000000020014B1868704700BFA4
:10134000840300207047000090F83D30DBB2012B91
:1013500037D1022380F83D300268D36843F001039F
:10136000D3600368194A934220D0B3F1804F1DD057
:10137000A2F57C42934219D002F58062934215D0C7
:1013800002F58062934211D002F5784293420DD06B
:1013900002F57052934209D0A2F59432934205D0DF
:1013A0001A6842F001021A60002070479A6802F041
:1013B0000702062A07D01A6842F001021A600020CC
:1013C0007047012070470020704700BF00000140B7
:1013D000704770477047704710B5044603681A6934
:1013E00012F0020F11D0DA6812F0020F0DD06FF078
:1013F00002021A610123037703689B6913F0030F4C
:1014000070D0FFF7E6FF0023237723681A6912F0F4
:10141000040F12D0DA6812F0040F0ED06FF004023D
:101420001A610223237723689B6913F4407F5FD0FE
:101430002046FFF7CEFF0023237723681A6912F0B6
:10144000080F12D0DA6812F0080F0ED06FF0080201
:101450001A61042323772368DB6913F0030F4ED04E
:101460002046FFF7B6FF0023237723681A6912F09E
:10147000100F12D0DA6812F0100F0ED06FF01002B9
:101480001A61082323772368DB6913F4407F3DD07A
:101490002046FFF79EFF0023237723681A6912F086
:1014A000010F03D0DA6812F0010F36D123681A69F0
:1014B00012F0800F03D0DA6812F0800F34D1236865
:1014C0001A6912F0400F03D0DA6812F0400F32D1DF
:1014D00023681A6912F0200F03D0DA6812F0200F87
:1014E00030D110BDFFF774FF2046FFF773FF8AE786
:1014F0002046FFF76DFF2046FFF76CFF9BE7204675
:10150000FFF766FF2046FFF765FFACE72046FFF7D1
:101510005FFF2046FFF75EFFBDE76FF001021A6133
:101520002046FEF7D7FFC1E76FF080021A61204620
:1015300000F0A1F8C3E76FF040021A612046FFF700
:101540004AFFC5E76FF020021A61204600F092F8CA
:10155000C7E700000368304A904212D0B0F1804FD4
:101560000FD0A2F57C4290420BD002F580629042EF
:1015700007D002F58062904203D002F57842904293
:1015800003D123F070034A681343234A90422AD0C0
:10159000B0F1804F27D0A2F57C42904223D002F5D3
:1015A000806290421FD002F5806290421BD002F50B
:1015B0007842904217D002F57052904213D002F553
:1015C000806290420FD002F5806290420BD0A2F56B
:1015D0009832904207D002F58062904203D002F523
:1015E0008062904203D123F44073CA68134323F00E
:1015F00080034A69134303608B68C3620B6883628C
:10160000054B984203D003F58063984201D10B69E2
:1016100003630123436170470000014040B310B5EC
:10162000044690F83D30F3B1022384F83D30214662
:1016300051F8040BFFF78EFF012384F8463084F83D
:101640003E3084F83F3084F8403084F8413084F8EC
:10165000423084F8433084F8443084F8453084F8CC
:101660003D30002010BD80F83C30FFF76BFEDBE71B
:101670000120704770477047026802F10C0353E87D
:10168000003F23F490730C3242E800310029F3D17B
:10169000026802F1140353E8003F23F001031432FF
:1016A00042E800310029F3D1036B012B05D0202340
:1016B00080F83E30002303637047026802F10C0398
:1016C00053E8003F23F010030C3242E800310029B8
:1016D000F3D1ECE790F83D30DBB2212B01D00220B2
:1016E00070478368B3F5805F17D0036A5A1C0262A3
:1016F0001A7803685A60C38C9BB2013B9BB2C384C7
:101700004BB90268D36823F08003D3600268D368C2
:1017100043F04003D360002070470369002BE4D1FD
:10172000036A1B880268C3F308035360036A023329
:101730000362E0E738B504460268136923F44053B6
:10174000C1680B4313618368026913434269134301
:10175000C2691A430168CB6823F4164323F00C03D3
:101760001343CB600268536923F4407381690B43D0
:1017700053610368314A934206D002F58062934276
:1017800002D0FFF7C7FB01E0FFF7D4FBE369B3F535
:10179000004F29D00021031849411B1841F10001D5
:1017A000C90041EA5371DB00181863684FEA8302ED
:1017B0004FEA937341F10001FEF70AFD204DA5FBAE
:1017C00000325109642303FB11031B013233A5FBD3
:1017D00003235B0903F0F00202EB011203F00F0395
:1017E000216813448B6038BD0023021843EB0301CA
:1017F000121841F10001C90041EA5271D2001018DB
:1018000041F10001626892185B41FEF7E1FC0C4D6A
:10181000A5FB00325109642303FB1103DB003233C3
:10182000A5FB03235B095A0002F4F87202EB0112D4
:1018300003F00703216813448B60D4E700100140D4
:101840001F85EB5158B310B5044690F83D300BB3EB
:10185000242384F83D302268D36823F40053D360F6
:101860002046FFF767FF2268136923F49043136152
:101870002268536923F02A0353612268D36843F432
:101880000053D36000202064202384F83D3084F886
:101890003E3010BD80F83C30FEF75CFFD8E70120F9
:1018A0007047704708B50168CA6822F04002CA60F4
:1018B000202280F83D20FFF7F4FF002008BD70478C
:1018C00008B5806B0023C385C384FFF7F8FF08BD0C
:1018D000704790F83E30DBB2222B67D18368B3F5B6
:1018E000805F4DD0826AB3F5805F04D0002B54D165
:1018F0000369002B51D103685B681370836A01335D
:101900008362C38D9BB2013B9BB2C385002B4FD139
:1019100000B583B00268D36823F02003D360026867
:10192000D36823F48073D3600268536923F0010302
:101930005361202380F83E30036B012B33D1002309
:101940000363026802F10C0353E8003F23F0100325
:101950000C3242E800310029F3D103681A6812F012
:10196000100F06D0002201921A6801925B68019361
:10197000019B818DFFF7ACFF002003B05DF804FBF5
:101980000269002AAED1826A03685B68C3F3080368
:101990001380836A02338362B3E703685B6803F0F2
:1019A0007F031370AAE7FEF7A1FEE5E70220704768
:1019B0000020704730B583B0044602681368D068D1
:1019C000516913F00F0505D113F0200F02D010F06C
:1019D000200F19D12DB111F0010119D110F4907F10
:1019E00016D1216B01297DD013F0800F03D010F0A8
:1019F000800F40F0158113F0400F03D010F0400F1E
:101A000040F0128103B030BD2046FFF762FFF9E7D6
:101A100013F0010F06D010F4807F03D0226C42F047
:101A20000102226413F0040F04D019B1226C42F0B9
:101A30000202226413F0020F04D019B1226C42F0AA
:101A40000402226413F0080F07D010F0200F00D119
:101A500019B1226C42F008022264226C002AD1D013
:101A600013F0200F02D010F0200F29D123685B69FA
:101A700003F04003226C12F0080F00D163B320463C
:101A8000FFF7FAFD23685B6913F0400F20D022684E
:101A900002F1140353E8003F23F04003143242E8FC
:101AA00000310029F3D1A36B73B1614A1A65A06BB1
:101AB000FFF7B0FB0028A5D0A06B036D9847A1E706
:101AC0002046FFF706FFD1E72046FFF7F8FE99E72B
:101AD0002046FFF7F4FE95E72046FFF7F0FE0023CF
:101AE00023648FE713F0100F3FF47EAF10F0100F58
:101AF0003FF47AAF00230193136801935368019375
:101B0000019B536913F0400F50D0A26B13685B68C0
:101B10009BB2002B3FF476AFA18D99427FF672AF56
:101B2000E385D369B3F5807F37D0226802F10C03D7
:101B300053E8003F23F480730C3242E8003100295F
:101B4000F3D1226802F1140353E8003F23F00103AC
:101B5000143242E800310029F3D1226802F1140363
:101B600053E8003F23F04003143242E800310029DB
:101B7000F3D1202384F83E3000232363226802F14E
:101B80000C0353E8003F23F010030C3242E800310D
:101B90000029F3D1A06BFFF7F3FAA18DE38D9BB27F
:101BA000C91A89B22046FFF793FE2BE7A18DE38D7A
:101BB0009BB2C91A89B2E38D9BB2002B3FF422AFCE
:101BC00000293FF41FAF226802F10C0353E8003FE5
:101BD00023F490730C3242E800300028F3D12268DD
:101BE00002F1140353E8003F23F00103143242E8EA
:101BF00000300028F3D1202384F83E3000232363F3
:101C0000226802F10C0353E8003F23F010030C326A
:101C100042E800300028F3D12046FFF759FEF1E6F4
:101C20002046FFF757FDEDE62046FFF73BFEE9E6CD
:101C3000C118000881628285C285002303642222C4
:101C400080F83E2080F83C30036923B10268D368F5
:101C500043F48073D3600268536943F00103536116
:101C60000268D36843F02003D3600020704708B5B2
:101C700090F83E30DBB2202B0DD171B17AB190F8E3
:101C80003C30012B0DD0012380F83C30002303634E
:101C9000FFF7D0FF00E0022008BD0120FCE7012093
:101CA000FAE70220F8E70000034AD2F8883043F44C
:101CB0007003C2F88830704700ED00E000F10803BF
:101CC00043604FF0FF328260C36003610023036012
:101CD000704700230361704743684B609A688A60CD
:101CE000516099600861036801330360704730B444
:101CF0000D68B5F1FF3F11D000F108031C465B6889
:101D00001A68AA42FAD963684B6099608C60616076
:101D1000086103680133036030BC70470469F2E76F
:101D20000369416882688A60416851605A688242EA
:101D300006D0002202611A68013A1A6018687047DA
:101D400082685A60F5E70000084B1B681B6823B9DE
:101D5000074B4FF0FF321A607047044B1B68DB687B
:101D6000DB685A68024B1A60704700BF8C03002082
:101D7000600400202DE9F04707469846089DDDF8ED
:101D800024900A9C266B02F18042013A06EB8206FF
:101D900026F0070600293AD08E464FF0000CBCF121
:101DA0000F0F0BD81EF80C2004EB0C0383F8342023
:101DB0001EF80C3013B10CF1010CF0E7002384F88D
:101DC0004330062D00D90625E56265644FF0000A10
:101DD000C4F848A0201DFFF77CFF04F11800FFF7AE
:101DE00078FF2461C5F10705A5616462C4F84CA0C1
:101DF00084F850A042463946304600F009FD206084
:101E0000B9F1000F01D0C9F80040BDE8F087002308
:101E100084F83430D5E7000038B5002407E004EB3F
:101E2000840293000E481844FFF748FF0134062C43
:101E3000F5D90C4D2846FFF741FF0B4C2046FFF724
:101E40003DFF0A48FFF73AFF0948FFF737FF094807
:101E5000FFF734FF084B1D60084B1C6038BD00BF06
:101E60009403002034040020480400206C04002067
:101E700098040020840400208C030020900300209C
:101E800010B5044600F0EEFC214A136801331360DC
:101E9000204B1B685BB1204B1B686BB91D4B1B684B
:101EA000DA6AE36A9A4207D81A4B1C6004E0194BBD
:101EB0001C601368012B28D0184A13680133136083
:101EC000E06A01238340164A11680B43136000EB5C
:101ED0008000211D134B03EB8000FFF7FDFE00F097
:101EE000E3FC0D4B1B687BB10A4B1B68DA6AE36AA3
:101EF0009A4209D24FF0E0234FF08052C3F8042DEC
:101F0000BFF34F8FBFF36F8F10BDFFF785FFD3E790
:101F10002004002088030020800400202C040020DE
:101F2000300400209403002010B5044690F851308E
:101F300063B1012B11D0022B0ED04FF0500383F36D
:101F40001188BFF36F8FBFF34F8FFEE7006B00F078
:101F5000E3FB204600F0E0FB10BD00F0DDFBFBE7FB
:101F60000F4B1B68D3B110B500F07CFC0D4BDB6848
:101F7000DC68201DFFF7D4FE0B4A1368013B136099
:101F8000074A1368013B136000F08EFC2046FFF700
:101F9000CBFF034B1B68002BE6D110BD704700BF81
:101FA00024040020980400202004002008B5FFF736
:101FB000D7FF074B1B68012BF9D94FF0E0234FF0F7
:101FC0008052C3F8042DBFF34F8FBFF36F8FEEE73E
:101FD0009403002070B504460D461D4B1E681D4B32
:101FE00018680430FFF79CFE50B91A4B1B68DA6A78
:101FF000012303FA02F218490B6823EA02030B607B
:10200000B4F1FF3F0DD03444124B1B685C60A64214
:1020100010D9124B18680F4B19680431FFF767FE8F
:1020200070BD002DEFD00B4B196804310C48FFF741
:1020300053FEF5E70B4B1868064B19680431FFF7A0
:1020400056FE094B1B68A342EAD9074B1C60E7E721
:10205000AC040020880300203004002090030020FE
:10206000840400208C0300206004002030B587B079
:102070000B9C7CB10C9DB5B154250495049D542D49
:102080001AD04FF0500383F31188BFF36F8FBFF363
:102090004F8FFEE74FF0500383F31188BFF36F8F2C
:1020A000BFF34F8FFEE74FF0500383F31188BFF368
:1020B0006F8FBFF34F8FFEE7049D0C9D2C630224AE
:1020C00085F8514000240394029505AC01940A9CC4
:1020D0000094FFF74FFE0C98FFF7D2FE059807B06B
:1020E00030BD2DE9F04385B00746884614461E46AC
:1020F000900000F093FA00B38146542000F08EFA6D
:102100000546B0B1C0F83090E5B1002385F85130F4
:10211000039302950D9B01930C9B0093334622463B
:1021200041463846FFF726FE2846FFF7A9FE012064
:1021300005E0484600F0F0FAE6E74FF0FF3005B062
:10214000BDE8F0834FF0FF30F9E7000010B588B02C
:1021500000240594069407AA06A905A8FEF76EFABE
:10216000059B0293069B019300942346079A0E4910
:102170000E48FFF77BFF0E4B186090B14FF05003F5
:1021800083F31188BFF36F8FBFF34F8F094B4FF06D
:10219000FF321A60084B01221A60084B1C6000F0E5
:1021A000FBFB08B010BD00BF382C0008AD1F0008B5
:1021B0005C0400206004002080040020AC040020A7
:1021C000024A136801331360704700BF28040020DF
:1021D000F8B53A4B1B68002B69D1394B1D680135A6
:1021E0001D60C5B9374B1B681B6843B14FF05003E6
:1021F00083F31188BFF36F8FBFF34F8FFEE7314A30
:102200001168314B186810601960304A1368013347
:102210001360FFF799FD2E4B1B68AB423DD9002799
:102220002C4B1B68DB6A03EB83039A002A4B9B58F9
:10223000012B00D90127294B1B68002B3CD001271B
:102240003AE001271F4B1B681B6843B31D4B1B68FB
:10225000DB68DC6863689D4226D3261D3046FFF7A5
:102260005FFDA36A1BB104F11800FFF759FDE36A93
:1022700001229A401A49086802430A6003EB83036B
:102280009A00314614481044FFF726FDE26A114BCC
:102290001B68DB6A9A42D4D2D4E70027D2E70C4B02
:1022A0004FF0FF321A60BBE7094A1360B8E70D4AE6
:1022B00013680133136000273846F8BD2804002056
:1022C000AC0400208C030020900300206404002054
:1022D000600400208803002094030020B004002044
:1022E000300400206804002038B5354B1B6843B922
:1022F0004FF0500383F31188BFF36F8FBFF34F8FFD
:10230000FEE700F0AFFA2E4B1A68013A1A601B681C
:10231000002B4FD12B4B1B680BB900244BE0002442
:10232000294B1B681BB3284BDB68DC6804F11800E1
:10233000FFF7F6FC251D2846FFF7F2FCE06A0123B3
:102340008340224A11680B43136000EB800029464A
:102350001F4B03EB8000FFF7BFFCE26A1D4B1B68BD
:10236000DB6A9A42DCD31C4B01221A60D8E70CB11D
:10237000FFF7EAFC194B1C6884B9174B1C68D4B1F1
:102380004FF0E0234FF08052C3F8042DBFF34F8F7E
:10239000BFF36F8F01240EE0013C07D0FFF718FF59
:1023A0000028F9D00C4B01221A60F5E70B4B0022F4
:1023B0001A60E2E7002400F077FA204638BD00BF3B
:1023C00028040020200400206C0400203004002099
:1023D0009403002088030020B0040020680400203B
:1023E00010B5A8B10446104B1B6843B14FF0500321
:1023F00083F31188BFF36F8FBFF34F8FFEE7FFF7B3
:10240000DFFE00212046FFF7E5FDFFF76DFF48B92D
:102410004FF0E0234FF08052C3F8042DBFF34F8FED
:10242000BFF36F8F10BD00BF28040020204B1B6836
:102430001BB1204B01221A6070471E4B00221A600C
:102440001D4B1B68B3FA83F3DBB2C3F11F0303EB2D
:1024500083018A0019498A5842B94FF0500383F327
:102460001188BFF36F8FBFF34F8FFEE7134903EB64
:10247000830082000A4450684068506003EB830C7C
:102480004FEA8C0208321144884209D003EB8303DF
:102490009A000A4B13445B68DA68094B1A6070476C
:1024A000406862469100054A0A445060EEE700BF6A
:1024B00028040020B00400203004002094030020F1
:1024C00088030020842801D0033070470020704723
:1024D00008B5FFF73BFE002008BD2DE9F04387B0AB
:1024E00004460F464569BDB18669AEB1D0F8048097
:1024F000D0F80090B0F90800FFF7E4FF02960195CC
:1025000000903B46226949464046FFF7AFFD0590E3
:10251000059807B0BDE8F08365682668D4F8108098
:10252000B4F90800FFF7CEFF05AB019300903B46DE
:102530001FFA88F231462846FFF7D3FD0128E7D07D
:102540000020E6E708B500B90120FFF749FF0020A9
:1025500008BD0000124A12F0070F1ED0D11D21F055
:102560000701C1F5705313440A460E48026000216A
:1025700041601344083B23F007030B480360596094
:102580001960991A51601360084B1960084B196063
:10259000084B4FF000421A6070474FF47053E4E765
:1025A000B8040020CC400020B4040020C04000202B
:1025B000BC400020B8400020164B1A461B688342DE
:1025C000FBD3516802EB010C844509D0416800EB54
:1025D000010C634509D00360904219D01060704728
:1025E0004068014451601046F0E710B40A4C24687A
:1025F000A3420BD05B681944416013681B680360F9
:10260000904200D010605DF8044B70470460F7E71B
:10261000704700BFCC400020B404002070B50546D0
:10262000FFF7CEFD364B1B68A3B1364B1B681D422E
:102630004ED135B1083515F0070F02D025F007054A
:102640000835002D46D0304B1B68AB4251D32F4A82
:10265000146804E0FFF77EFFE7E722461C46636844
:10266000AB4202D22368002BF7D1254B1B68A34253
:1026700041D0166808362368136063685B1B102B13
:1026800010D9601910F0070F08D04FF0500383F3F2
:102690001188BFF36F8FBFF34F8FFEE74360656014
:1026A000FFF78AFF626818490B689B1A0B6018498C
:1026B00009688B4201D216490B60124B1B68134309
:1026C000636000232360134A13680133136002E040
:1026D000002600E00026FFF707FE16F0070F0CD0DB
:1026E0004FF0500383F31188BFF36F8FBFF34F8F09
:1026F000FEE70026EFE70026EDE7304670BD00BF9D
:10270000B4040020B8400020BC400020CC40002091
:10271000C0400020C4400020002834D038B5044612
:10272000A0F1080550F8043C174A1268134208D17A
:102730004FF0500383F31188BFF36F8FBFF34F8FB8
:10274000FEE750F8081C41B14FF0500383F31188A5
:10275000BFF36F8FBFF34F8FFEE723EA020340F80A
:10276000043CFFF72DFD54F8041C084A13680B4481
:1027700013602846FFF720FF054A136801331360F2
:10278000FFF7B2FD38BD7047B8400020BC400020C4
:10279000C840002082B0002301930D4B1B68B3F1A9
:1027A000FF3F08D04FF0500383F31188BFF36F8FC2
:1027B000BFF34F8FFEE74FF0500383F31188BFF351
:1027C0006F8FBFF34F8F019B002BFCD002B070477F
:1027D0000C00002008480068006880F308884FF06B
:1027E000000080F3148862B661B6BFF34F8FBFF369
:1027F0006F8F00DF00BF000008ED00E0DFF80C0085
:10280000016841F4700101607047000088ED00E04C
:102810004FF0807340F8043C21F0010140F8081C9F
:10282000054B40F80C3C40F8202C6FF0020340F8B8
:10283000243C4438704700BF952700080000000082
:10284000074B19680868B0E8F04F80F30988BFF3B8
:102850006F8F4FF0000080F311887047AFF3008056
:10286000880300204FF0500383F31188BFF36F8F6C
:10287000BFF34F8F0B4A136801331360012B00D055
:1028800070474FF0E023D3F8043D13F0FF0FF7D06B
:102890004FF0500383F31188BFF36F8FBFF34F8F57
:1028A000FEE700BF0C000020094B1B6843B94FF046
:1028B000500383F31188BFF36F8FBFF34F8FFEE791
:1028C000013B034A13600BB983F31188704700BFC3
:1028D0000C000020000000000000000000000000CC
:1028E000EFF30980BFF36F8F154B1A681EF0100FBE
:1028F00008BF20ED108A20E9F04F10602DE9090093
:102900004FF0500080F31188BFF34F8FBFF36F8FEC
:10291000FFF78CFD4FF0000080F3118809BC1968A7
:102920000868B0E8F04F1EF0100F08BFB0EC108A36
:1029300080F30988BFF36F8F704700BFAFF300804B
:102940008803002008B54FF0500383F31188BFF3CC
:102950006F8FBFF34F8FFFF73BFC28B14FF0E023A1
:102960004FF08052C3F8042D002383F3118808BD73
:102970004FF0E022002313619361054B1B6805496A
:10298000A1FB03139B09013B5361072313617047AC
:1029900008000020D34D62104FF0E023D3F8002D43
:1029A0003D4B9A421CD04FF0E023D3F8002D3B4B17
:1029B0009A421ED030B583B0394B1A78D2B2019208
:1029C000FF221A701B78DBB28DF803309DF80330BC
:1029D00003F05003334A1370334B07221A601BE095
:1029E0004FF0500383F31188BFF36F8FBFF34F8F06
:1029F000FEE74FF0500383F31188BFF36F8FBFF3EF
:102A00004F8FFEE7284A1368013B13609DF803309F
:102A10005B00DBB28DF803309DF8033013F0800FBC
:102A2000F0D1214B1B68032B08D04FF0500383F3E8
:102A30001188BFF36F8FBFF34F8FFEE71B021A4A57
:102A4000136003F4E0631360019BDBB2144A13705C
:102A50004FF0E024D4F8203D43F47003C4F8203D47
:102A6000D4F8203D43F07043C4F8203DFFF780FFC9
:102A700000250E4B1D60FFF7C1FED4F8343F43F034
:102A80004043C4F8343FFFF7A5FEFFF7CFFCFFF744
:102A900081FE284603B030BD71C20F4170C20F41A4
:102AA00000E400E0D4400020D84000200C000020CA
:102AB000DFF834D00D480E490E4A002302E0D45806
:102AC000C4500433C4188C42F9D30B4A0B4C002376
:102AD00001E013600432A242FBD3FFF7E5F800F0F7
:102AE00011F8FDF759FD704700000220000000209A
:102AF00010000020502C000810000020DC400020B6
:102B0000FEE7000070B50D4D0D4C641BA4100026AF
:102B1000A64209D10B4D0C4C00F034F8641BA410F4
:102B20000026A64205D170BD55F8043B98470136F2
:102B3000EEE755F8043B98470136F2E7482C0008C9
:102B4000482C0008482C00084C2C0008024403467E
:102B5000934200D1704703F8011BF9E710B57AB131
:102B600003460139841813F8010B11F8012F904224
:102B700001D1A34201D1801A10BD0028F3D1FAE798
:102B80001046F9E7F8B500BFF8BC08BC9E46704790
:0C2B9000F8B500BFF8BC08BC9E467047BA
:102B9C00F02B00081D0600080000000000000000DB
:102BAC00800000000000000000000000FC2B00086A
:102BBC002706000800000000000000008000000054
:102BCC000000000000000000082C0008310600087E
:102BDC000000000000000000800000000000000069
:102BEC00000000004C65644F6E5461736B00000074
:102BFC004C65644F66665461736B00004C656442AF
:102C0C006C696E6B5461736B000000004C45445F43
:102C1C004F4E000000000000000000000102030401
:102C2C0006070809000000000102030449444C4552
:042C3C000000000094
:082C4000C0D5FF7F0100000078
:042C4800B5010008CA
:042C4C0091010008EA
:102C500001000000100000000024F400AAAAAAAAA3
:0400000508002AB114
:00000001FF
